:100000000C9438000C944A000C944A000C944A005A
:100010000C944A000C944A000C944A000C944A0038
:100020000C944A000C944A000C944A000C944A0028
:100030000C944A000C944A000C944A000C944A0018
:100040000C944A000C944A000C944A000C944A0008
:100050000C944A000C944A000C944A000C944A00F8
:100060000C944A000C944A000C944A000C944A00E8
:1000700011241FBECFEFD4E0DEBFCDBF21E0A0E052
:10008000B1E001C01D92A031B207E1F70E9460010A
:100090000C9481010C940000AC0120E030E080E081
:1000A00007C0FA01E20FF31F908189272F5F3F4FAE
:1000B00026173707B0F3089520E030E003C00000B2
:1000C0002F5F3F4F28173907D0F3089580E884BF8A
:1000D00084BF8FEF8ABB1BBA84B3806F84BB85B3A8
:1000E000806E85BB85B38F7E85BB089510BC87E489
:1000F00089B988E18AB986E880BD08956BBB8230F2
:1001000079F08330C1F0813001F585B38F7785BBFD
:1001100081E090E00E945C0085B3806885BB089513
:1001200085B38F7B85BB81E090E00E945C0085B346
:10013000806485BB089585B38F7D85BB81E090E0A9
:100140000E945C0085B3806285BB0895CF93DF93E6
:10015000C2E0D1E0688181E00E947E00698182E096
:100160000E947E006A8183E00E947E00DF91CF9131
:100170000895CF93DF93FC0120812434B1F42181D1
:100180002534A9F421852635A1F42281263099F45D
:100190002381233591F4EC0168E070E00E944C006B
:1001A0009885891761F082E00BC083E009C083E085
:1001B00007C083E005C083E003C083E001C081E0A5
:1001C000DF91CF910895CF93DF9300D000D000D07E
:1001D000CDB7DEB794E4998395E49A8392E09B834C
:1001E0008C8364E070E0CE0101960E944C008D8308
:1001F00086E58E8380E00BC05D9BFECFE1E0F0E002
:10020000EC0FFD1FE80FF11D90819CB98F5F8630C8
:1002100098F326960FB6F894DEBF0FBECDBFDF91E0
:10022000CF910895DC01E2E0F1E014968C911497EF
:10023000808315968C911597818316968C91828375
:100240000E94A60008955F9B3AC08CB19091010175
:10025000911122C0E0910001E1110BC0843449F4F6
:1002600091E09E0F90930001F0E0EA5FFE4F8083E3
:100270000895E13071F4853461F491E09E0F90931C
:100280000001F0E0EA5FFE4F808381E0809301018E
:100290000895109200010895E091000191E09E0FF1
:1002A00090930001F0E0EA5FFE4F80839A3038F0CF
:1002B000109201011092000181E0809305010895E0
:1002C0000E9466000E947600E2E0F1E01082118256
:1002D00012820E94A6000E942301809105018823BA
:1002E000D1F386E091E00E94B900C82F0E94E3009C
:1002F000C13021F486E091E00E94120110920501C4
:06030000EACFF894FFCFE4
:00000001FF
