S00C0000746573742E7372656358
S11300000C9438000C9442000C9442000C9442006E
S11300100C9442000C9442000C9442000C94420054
S11300200C9442000C9442000C9442000C94420044
S11300300C9442000C9442000C9442000C94420034
S11300400C9442000C9442000C9442000C94420024
S11300500C9442000C9442000C9442000C94420014
S11300600C9442000C9442000C9442000C94420004
S113007011241FBECFEFD4E0DEBFCDBF0E948200AB
S11300800C9492000C94000080E884BF84BF8FEF2E
S11300908ABB84BB85B3806185BB85B38F7785BB01
S11300A085B38F7B85BB85B38F7D85BB08958BBB63
S11300B085B38F7785BB000085B3806885BB00005E
S11300C085B38F7785BB08958BBB85B38F7B85BB49
S11300D0000085B3806485BB000085B38F7B85BB3E
S11300E008958BBB85B38F7D85BB000085B380628B
S11300F085BB000085B38F7D85BB089585B38F7E56
S113010085BB08950E9444000E947E0080E00E9406
S113011057008EEE0E9464008FEF0E94710080E011
S10B012090E00895F894FFCF6C
S9030000FC
