:100000000C9438000C944A000C944A000C944A005A
:100010000C944A000C944A000C944A000C944A0038
:100020000C944A000C944A000C944A000C944A0028
:100030000C944A000C944A000C944A000C944A0018
:100040000C944A000C944A000C944A000C944A0008
:100050000C944A000C944A000C944A000C944A00F8
:100060000C944A000C944A000C944A000C944A00E8
:1000700011241FBECFEFD4E0DEBFCDBF21E0A0E052
:10008000B1E001C01D92A231B207E1F70E948C01DC
:100090000C94B6010C940000AC0120E030E080E04C
:1000A00007C0FA01E20FF31F908189272F5F3F4FAE
:1000B00026173707B0F3089502C00000C9019C015C
:1000C00021503109892BC9F7089580E884BF84BF86
:1000D0008FEF8ABB1BBA84B3806F84BB85B3806EFD
:1000E00085BB85B38F7E85BB089510BC87E489B935
:1000F00088E18AB986E880BD08956BBB823079F0CB
:100100008330C1F0813001F585B38F7785BB81E005
:1001100090E00E945C0085B3806885BB089585B33C
:100120008F7B85BB81E090E00E945C0085B380649A
:1001300085BB089585B38F7D85BB81E090E00E94EB
:100140005C0085B3806285BB0895CF93DF93C3E0E5
:10015000D1E0688181E00E947D00698182E00E9497
:100160007D006A8183E00E947D00DF91CF91089538
:10017000CF93DF93FC0120812434B1F42181253415
:10018000A9F421852635A1F42281263099F4238112
:10019000233591F4EC0168E070E00E944C009885F2
:1001A000891761F082E00BC083E009C083E007C0DB
:1001B00083E005C083E003C083E001C081E0DF91FC
:1001C000CF910895CF93DF9300D000D000D0CDB76A
:1001D000DEB794E4998395E49A8392E09B838C83C1
:1001E0001D8286E58E8364E070E0CE0101960E9458
:1001F0004C008D8380E00BC05D9BFECFE1E0F0E022
:10020000EC0FFD1FE80FF11D90819CB98F5F8630C8
:1002100098F326960FB6F894DEBF0FBECDBFDF91E0
:10022000CF910895DC01E3E0F1E014968C911497EE
:10023000808315968C911597818316968C91828375
:100240000E94A50008955F9B43C09CB110920201DB
:100250001092010180910001811122C0E0910701FB
:10026000E1110BC0943449F481E08E0F80930701B3
:10027000F0E0E85FFE4F90830895E13071F495342B
:1002800061F481E08E0F80930701F0E0E85FFE4F9C
:10029000908381E0809300010895109207010895F2
:1002A000E0910701EA3040F481E08E0F809307016E
:1002B000F0E0E85FFE4F9083809107018A3058F1AB
:1002C0001092000181E080930601109207010895C9
:1002D000809100018823F9F0809101019091020141
:1002E000843F914080F48091010190910201019638
:1002F000909302018093010183EC99E00197F1F75B
:1003000000C00000089510920001109207011092A1
:1003100002011092010108959FE088E10FB6F89460
:10032000A89581BD0FBE91BD0E9465000E94750019
:10033000E3E0F1E01082118212820E94A500A895EC
:100340000E942301809106018823C9F388E091E08F
:100350000E94B800C82F0E94E200C13021F488E05A
:1003600091E00E94120110920601E9CFF894FFCFAC
:00000001FF
